:020000040800F2
:10000000080400209D010008CF0C0008CB0C00085C
:10001000CD0C0008E5010008C50D00080000000037
:10002000000000000000000000000000F30C0008C9
:10003000E701000800000000F10C0008F50C0008C2
:10004000B7010008B7010008B7010008B7010008B0
:10005000B7010008B7010008B7010008B7010008A0
:10006000B7010008B7010008B7010008B701000890
:10007000B7010008B7010008B7010008B701000880
:10008000B7010008B7010008B7010008B701000870
:10009000B7010008B7010008B7010008B701000860
:1000A000B7010008B7010008B7010008B701000850
:1000B000B7010008B7010008B7010008B701000840
:1000C000B7010008B7010008B7010008B701000830
:1000D000B7010008B7010008B7010008B701000820
:1000E000B7010008B7010008B7010008B701000810
:1000F000B7010008B7010008B7010008B701000800
:10010000000000000000000000000000B70100082F
:10011000B7010008B7010008B7010008B7010008DF
:10012000B7010008B7010008B7010008B7010008CF
:10013000B7010008B701000800000000000000003F
:10014000B7010008B7010008B7010008000000006F
:10015000000000000000000000000000000000009F
:100160000000000000000000B7010008B70100080F
:10017000B7010008000000000000000000000000BF
:1001800000000000B7010008DFF80CD000F018F8FC
:1001900000480047E50D0008080400200648804795
:1001A00006480047FEE7FEE7FEE7FEE7FEE7FEE75C
:1001B000FEE7FEE7FEE7FEE75D0D000889010008A7
:1001C000064C074D06E0E06840F0010394E80700A4
:1001D00098471034AC42F6D3FFF7DAFF78100008E6
:1001E00098100008FEE7704731B500F0D9F8009C80
:1001F0000546601C00D0641C00F0D2F8401BA042F1
:10020000FAD338BD2DE9F84FDFF864B100234FF081
:10021000010C4FF0030A4FF00F090BF1040EA0E0A0
:100220000CFA03F6324072D04C68022C01D0122C2A
:100230000ED1DC0800EB8408D8F820405D07EF0EF3
:1002400009FA07F5AC430D69BD402543C8F82050B5
:1002500007685D0091F804800AFA05F408F00308C5
:10026000A74308FA05F848EA0708C0F800804F6875
:10027000012F05D0022F03D0112F01D0122F11D141
:100280008768D1F80C80A74308FA05F848EA070800
:10029000C0F808804768B7430E79C6F300169E4041
:1002A0003E434660C668A6438C68AC403443C46095
:1002B0004C68E40054D52F4CA56945F00105A561B3
:1002C000A46923F0030504F0010400942A4C2E19BC
:1002D000B4689D072F0F09FA07F5AC43B0F1904FB2
:1002E00004D0264DA84203D1012512E0002510E0DC
:1002F000234DA84201D102250BE0224DA84201D195
:10030000032506E0204DA84202D1042501E027E0A4
:100310000525BD402543B560DBF800405D464E68CD
:100320009443F60300D514432C60DEF80040754674
:100330004E689443B60300D514432C600C4D083529
:100340002C684E689443F60200D514432C60084D87
:100350000C352C684E689443B60200D514432C60CB
:100360005B1C0A6832FA03F47FF45AAFBDE8F88FD9
:100370000004014000100240000001400004004859
:1003800000080048000C00480010004842694A403C
:10039000426170470AB18161704781627047000015
:1003A000014800687047000004000020024801680E
:1003B000491C01607047000004000020074810B588
:1003C000016841F010010160032000F075F8002081
:1003D00000F006F800F018F8002010BD00200240E0
:1003E00010B5044607484FF47A710068B0FBF1F08D
:1003F00000F053FC00222146501E00F03DF8002082
:1004000010BD0000000000201A4808B5816941F0C5
:1004100001018161806900F001000090032000F07B
:100420004BF8002211466FF00B0000F025F8002277
:1004300011466FF00A0000F01FF8002211466FF01D
:10044000090000F019F800221146501F00F014F8BE
:1004500000221146101F00F00FF800221146901ED6
:1004600000F00AF80022BDE808401146501E00F0D6
:1004700003B8000000100240F0B40E4B1B680C469D
:10048000C3F30223C3F10705042D00D90425191D68
:10049000072901D2002300E0DB1E012606FA05F140
:1004A000491E214099409E40761E16403143F0BCC3
:1004B00000F00EBC0CED00E0064900F007020868F1
:1004C0004FF6FF03184040EA0220034A1043086039
:1004D000704700000CED00E00000FA052DE9F04740
:1004E000DFF8708105460E46D8F8000000F00700DE
:1004F000B0420CD2D8F8001021F007013143C8F8FF
:100500000010D8F8000000F00700B04277D128783A
:10051000514C800705D56068A96820F0F0000843B9
:1005200060602878C00759D06968012001290DD082
:10053000022929D05FF0020393FAA3F2B2FA82F201
:1005400042F02002520904D0226803E04FF4003345
:10055000F2E7626A93FAA3F3B3FA83F303F01F039B
:10056000984002424BD0606820F00300084360606E
:10057000FFF716FF6968074641F2883001290DD060
:100580000229814617D025E04FF00073D4E700BF61
:10059000FFF706FFC11B494501D918E08146606895
:1005A000C0F381000128F3D118E000BFFFF7F8FE87
:1005B000C11B49450BD86068C0F381000228F5D102
:1005C0000CE000BFFFF7ECFEC11B494502D9032038
:1005D000BDE8F087606810F00C0FF3D1D8F8001078
:1005E000404601F00701B1420BD9016821F0070133
:1005F00031430160006800F00700B04201D00120E3
:10060000E6E72878400705D56068E96820F4E060EF
:10061000084360602878000706D56068296920F4DF
:10062000605040EAC100606000F022F86168F0228A
:1006300092FAA2F201F0F001B2FA82F2D140074A36
:10064000515CC840064908600020FFF7C9FE002041
:10065000BEE70000002002400010024048100008E1
:1006600000000020014800687047000000000020E2
:10067000144B10B55A68144802F00C0104291DD01F
:1006800008291BD14FF4701494FAA4F402F47011E9
:10069000B4FA84F4E1400D4CDB6A615C0F2494FAF7
:1006A000A4F403F00F03B4FA84F4E340074C1034CD
:1006B000D203E35C03D5B0FBF3F0484310BD04481C
:1006C000484310BD0010024000127A005810000884
:1006D00000093D002DE9F84F05460078F74EC007A8
:1006E0004FF0010425D070686704C0F38100012831
:1006F00007D07068C0F3810002281BD17068C00366
:1007000018D597FAA7F0B0FA80F040F02000400921
:1007100001D0306800E0706A97FAA7F1B1FA81F170
:1007200001F01F0104FA01F1084264D06868002852
:100730007DD060E06868B0F5803F0BD010B1B0F5B7
:10074000A02F17D0306820F480303060306820F45B
:10075000802002E0306840F480303060F06AA968A0
:1007600020F00F000843F062686828B3FFF718FE16
:1007700080460BE0306840F480203060EAE700BF3C
:10078000FFF70EFEA0EB0800642871D897FAA7F0D7
:10079000B0FA80F040F02000400901D0306800E05D
:1007A000706A97FAA7F1B1FA81F101F01F0104FA1A
:1007B00001F10842E4D01EE0FFF7F2FD804605E0BB
:1007C000FFF7EEFDA0EB08006428DED897FAA7F04B
:1007D000B0FA80F040F02000400901D0306800E01D
:1007E000706A97FAA7F1B1FA81F101F01F0104FADA
:1007F00001F10842E4D12878DFF8C48280074FF085
:10080000000A4FF0020732D570684FF0F80B10F075
:100810000C0F07D07068C0F38100022829D17068DE
:10082000C00326D497FAA7F0B0FA80F000E08BE07E
:1008300040F02000400901D0306800E0706A97FA6B
:10084000A7F1B1FA81F101F01F0104FA01F10842A8
:1008500002D02869012877D130689BFAABF2696928
:10086000B2FA82F220F0F8009140084330605AE07A
:1008700064E1286988B394FAA4F0B0FA80F048F8EB
:100880002040FFF78DFD814606E000BFFFF788FDA1
:10089000A0EB0900022898D897FAA7F0B0FA80F0E8
:1008A00040F02000400901D0306800E0706A97FAFB
:1008B000A7F1B1FA81F101F01F0104FA01F1084238
:1008C000E4D030689BFAABF220F0F8016869B2FA24
:1008D00082F290400143316025E0FFE794FAA4F1F1
:1008E000B1FA81F148F821A0FFF75AFD814605E0F1
:1008F000FFF756FDA0EB09000228CCD897FAA7F025
:10090000B0FA80F040F02000400901D0306800E0EB
:10091000706A97FAA7F1B1FA81F101F01F0104FAA8
:1009200001F10842E4D1287800076CD5A869A8B382
:1009300094FAA4F0B0FA80F008EB8000C0F880448C
:10094000FFF72EFD814607E08AE100BFFFF728FD93
:10095000A0EB090002289ED897FAA7F0B0FA80F021
:1009600040F06000B4EB501F01D130680BE097FA03
:10097000A7F0B0FA80F040F06000B7EB501F01D153
:10098000306A00E0706A97FAA7F1B1FA81F101F0DC
:100990001F0104FA01F21042D8D034E0FFE794FAC4
:1009A000A4F1B1FA81F108EB8101C1F880A4FFF74D
:1009B000F7FC814606E000BFFFF7F2FCA0EB090060
:1009C00002289AD897FAA7F0B0FA80F040F06000B9
:1009D000B4EB501F01D130680BE097FAA7F0B0FAE2
:1009E00080F040F06000B7EB501F01D1306A00E0AA
:1009F000706A97FAA7F1B1FA81F101F01F0104FAC8
:100A000001F21042D8D12878400774D5F0694FF030
:100A10000009C00009D4F06940F08050F061F0692D
:100A20004FF0010900F08050009026480168C90588
:100A300012D4016841F480710160FFF7B1FC834674
:100A400006E000BFFFF7ACFCA0EB0B00642875D8F4
:100A50001C480068C005F5D5E86801280AD008B12F
:100A6000052811D0306A20F001003062306A20F091
:100A7000040002E0306A40F001003062E868E0B152
:100A8000FFF78EFC83460DE0306A40F004003062D0
:100A9000F0E700BFFFF784FCA0EB0B0141F28830C8
:100AA00081424BD897FAA7F0B0FA80F040F04000AE
:100AB000B4EB501F08D1306812E01DE00010024076
:100AC000000042420070004097FAA7F0B0FA80F0B0
:100AD00040F04000B7EB501F01D1306A00E0706A6F
:100AE00097FAA7F1B1FA81F101F01F0104FA01F2BE
:100AF0001042CFD02EE034E0FFF752FC834607E0EF
:100B0000FFF74EFCA0EB0B0141F28830814215D873
:100B100097FAA7F0B0FA80F040F04000B4EB501F15
:100B200001D130680CE097FAA7F0B0FA80F040F0FD
:100B30004000B7EB501F02D1306A01E083E0706AD9
:100B400097FAA7F1B1FA81F101F01F0104FA01F25D
:100B50001042D5D1B9F1000F03D0F06920F08050D8
:100B6000F061E86980B37168C1F38101022977D02F
:100B70004FF080714F00022809D091FAA1F0B0FA2D
:100B800080F048F820A0FFF70BFC05465EE08946A0
:100B900091FAA1F15046B1FA81F1C24648F821001C
:100BA000FFF7FEFB804605E0FFF7FAFBA0EB08002D
:100BB000022848D897FAA7F0B0FA80F040F0200059
:100BC000400902D0306801E056E0706A97FAA7F158
:100BD000B1FA81F101F01F0104FA01F10842E3D1F9
:100BE000D5E908100843716821F474110843706056
:100BF00099FAA9F0B0FA80F04AF82040FFF7D0FB4C
:100C0000054604E0FFF7CCFB401B02281BD897FAEF
:100C1000A7F0B0FA80F040F02000400901D0306821
:100C200000E0706A97FAA7F1B1FA81F101F01F01B3
:100C300004FA01F10842E5D01EE000BFFFF7B0FB67
:100C4000401B022802D90320BDE8F88F97FAA7F0CD
:100C5000B0FA80F040F02000400902D0306801E096
:100C60000CE0706A97FAA7F1B1FA81F101F01F0167
:100C700004FA01F10842E1D10020E5E70120E3E7B1
:100C80004FF0E0210428086903D020F00400086137
:100C9000704740F00400FAE7704710B5401EB0F10D
:100CA000807F01D3012010BD4FF0E02460610F214F
:100CB000601700F00DF80020A061072020610020DF
:100CC00010BD10B5FFF7E8FF10BDFEE7FEE7704767
:100CD0000907090E002806DA00F00F0000F1E020F5
:100CE00080F8141D704700F1E02080F80014704770
:100CF0007047704710B5FFF759FBBDE81040FFF78C
:100D0000E0BF10B590B002200090012004901020A8
:100D10000024059007946846FFF7DCFC00B1FEE76D
:100D20000F20CDE90A040C940D9400210AA80E941A
:100D3000FFF7D4FB00B1FEE7FFF794FC4FF47A71A4
:100D4000B0FBF1F0FFF7A9FF0420FFF799FF0022A5
:100D50001146501EFFF790FB10B010BD14480168FB
:100D600041F4700101601348016841F00101016024
:100D70004168114A114041600168104A1140016008
:100D8000016821F480210160416821F4FE01416085
:100D9000C16A21F00F01C162016B094A1140016370
:100DA000002181600249C00380390860704700005B
:100DB00088ED00E0001002400CC07FF8FFFFF6FE57
:100DC000CCFC00FFFEE702E008C8121F08C1002AA1
:100DD000FAD170477047002001E001C1121F002ABC
:100DE000FBD1704786B0FFF7E9FAFFF78AFF944816
:100DF000416941F4001141614069924D00F40010D5
:100E00004FF47F440590002221462846FFF7C2FA9E
:100E10000120CDE900400020029003906946284659
:100E2000FFF7F0F94FF4807677004FF480684FF4C5
:100E300000694FF4805A4FF4005B01223146284686
:100E4000FFF7A8FA6420FFF7CFF9012239462846B8
:100E5000FFF7A0FA6420FFF7C7F9012241462846B0
:100E6000FFF798FA6420FFF7BFF9012249462846A8
:100E7000FFF790FA6420FFF7B7F9012251462846A0
:100E8000FFF788FA6420FFF7AFF901225946284698
:100E9000FFF780FA6420FFF7A7F9012291032846A3
:100EA000FFF778FA6420FFF79FF90122D103284663
:100EB000FFF770FA6420FFF797F9002231462846C1
:100EC000FFF768FA6420FFF78FF9002239462846B9
:100ED000FFF760FA6420FFF787F9002241462846B1
:100EE000FFF758FA6420FFF77FF9002249462846A9
:100EF000FFF750FA6420FFF777F9002251462846A1
:100F0000FFF748FA6420FFF76FF900225946284698
:100F1000FFF740FA6420FFF767F900224FF48041A1
:100F20002846FFF737FA6420FFF75EF900224FF4F6
:100F300000412846FFF72EFA4FF4FA70FFF754F9F4
:100F400021462846FFF722FA4FF4FA70FFF74CF9D2
:100F500021462846FFF71AFA4FF4FA70FFF744F9D2
:100F600021462846FFF712FA4FF4FA70FFF73CF9D2
:100F700021462846FFF70AFA6420FFF735F90122D7
:100F8000D1032846FFF706FA6420FFF72DF9012266
:100F900091032846FFF7FEF96420FFF725F90122A7
:100FA00059462846FFF7F6F96420FFF71DF901229C
:100FB00051462846FFF7EEF96420FFF715F90122A4
:100FC00049462846FFF7E6F96420FFF70DF90122AC
:100FD00041462846FFF7DEF96420FFF705F90122B4
:100FE00039462846FFF7D6F96420FFF7FDF80122BD
:100FF00031462846FFF7CEF96420FFF7F5F8214681
:101000002846FFF7C3F94FF4FA70FFF7EDF82146D1
:101010002846FFF7BBF94FF4FA70FFF7E5F82146D1
:101020002846FFF7B3F94FF4FA70FFF7DDF82146D1
:101030002846FFF7ABF96420FFF7D6F8FDE600007D
:1010400000100240001000480000000000000000F6
:10105000010203040607080902030405060708093C
:101060000A0B0C0D0E0F10100102030405060708F1
:10107000090A0B0C0D0E0F1098100008000000203C
:1010800008000000C60D0008A0100008080000209D
:1010900000040000D60D000800127A0000000000D5
:040000050800018965
:00000001FF
